{
  "_format": "hh-sol-artifact-1",
  "contractName": "MyNFTSource",
  "sourceName": "contracts/MyNFTSource.sol",
  "abi": [
    {
      "inputs": [],
      "stateMutability": "nonpayable",
      "type": "constructor"
    },
    {
      "anonymous": false,
      "inputs": [
        {
          "indexed": true,
          "internalType": "address",
          "name": "owner",
          "type": "address"
        },
        {
          "indexed": true,
          "internalType": "address",
          "name": "approved",
          "type": "address"
        },
        {
          "indexed": true,
          "internalType": "uint256",
          "name": "tokenId",
          "type": "uint256"
        }
      ],
      "name": "Approval",
      "type": "event"
    },
    {
      "anonymous": false,
      "inputs": [
        {
          "indexed": true,
          "internalType": "address",
          "name": "owner",
          "type": "address"
        },
        {
          "indexed": true,
          "internalType": "address",
          "name": "operator",
          "type": "address"
        },
        {
          "indexed": false,
          "internalType": "bool",
          "name": "approved",
          "type": "bool"
        }
      ],
      "name": "ApprovalForAll",
      "type": "event"
    },
    {
      "anonymous": false,
      "inputs": [
        {
          "indexed": true,
          "internalType": "address",
          "name": "previousOwner",
          "type": "address"
        },
        {
          "indexed": true,
          "internalType": "address",
          "name": "newOwner",
          "type": "address"
        }
      ],
      "name": "OwnershipTransferred",
      "type": "event"
    },
    {
      "anonymous": false,
      "inputs": [
        {
          "indexed": true,
          "internalType": "address",
          "name": "from",
          "type": "address"
        },
        {
          "indexed": true,
          "internalType": "address",
          "name": "to",
          "type": "address"
        },
        {
          "indexed": true,
          "internalType": "uint256",
          "name": "tokenId",
          "type": "uint256"
        }
      ],
      "name": "Transfer",
      "type": "event"
    },
    {
      "inputs": [
        {
          "internalType": "address",
          "name": "to",
          "type": "address"
        },
        {
          "internalType": "uint256",
          "name": "tokenId",
          "type": "uint256"
        }
      ],
      "name": "approve",
      "outputs": [],
      "stateMutability": "nonpayable",
      "type": "function"
    },
    {
      "inputs": [
        {
          "internalType": "address",
          "name": "owner",
          "type": "address"
        }
      ],
      "name": "balanceOf",
      "outputs": [
        {
          "internalType": "uint256",
          "name": "",
          "type": "uint256"
        }
      ],
      "stateMutability": "view",
      "type": "function"
    },
    {
      "inputs": [
        {
          "internalType": "uint256",
          "name": "tokenId",
          "type": "uint256"
        }
      ],
      "name": "burn",
      "outputs": [],
      "stateMutability": "nonpayable",
      "type": "function"
    },
    {
      "inputs": [
        {
          "internalType": "uint256",
          "name": "tokenId",
          "type": "uint256"
        }
      ],
      "name": "getApproved",
      "outputs": [
        {
          "internalType": "address",
          "name": "",
          "type": "address"
        }
      ],
      "stateMutability": "view",
      "type": "function"
    },
    {
      "inputs": [
        {
          "internalType": "address",
          "name": "owner",
          "type": "address"
        },
        {
          "internalType": "address",
          "name": "operator",
          "type": "address"
        }
      ],
      "name": "isApprovedForAll",
      "outputs": [
        {
          "internalType": "bool",
          "name": "",
          "type": "bool"
        }
      ],
      "stateMutability": "view",
      "type": "function"
    },
    {
      "inputs": [
        {
          "internalType": "address",
          "name": "to",
          "type": "address"
        }
      ],
      "name": "mint",
      "outputs": [],
      "stateMutability": "nonpayable",
      "type": "function"
    },
    {
      "inputs": [],
      "name": "name",
      "outputs": [
        {
          "internalType": "string",
          "name": "",
          "type": "string"
        }
      ],
      "stateMutability": "view",
      "type": "function"
    },
    {
      "inputs": [],
      "name": "owner",
      "outputs": [
        {
          "internalType": "address",
          "name": "",
          "type": "address"
        }
      ],
      "stateMutability": "view",
      "type": "function"
    },
    {
      "inputs": [
        {
          "internalType": "uint256",
          "name": "tokenId",
          "type": "uint256"
        }
      ],
      "name": "ownerOf",
      "outputs": [
        {
          "internalType": "address",
          "name": "",
          "type": "address"
        }
      ],
      "stateMutability": "view",
      "type": "function"
    },
    {
      "inputs": [],
      "name": "renounceOwnership",
      "outputs": [],
      "stateMutability": "nonpayable",
      "type": "function"
    },
    {
      "inputs": [
        {
          "internalType": "address",
          "name": "from",
          "type": "address"
        },
        {
          "internalType": "address",
          "name": "to",
          "type": "address"
        },
        {
          "internalType": "uint256",
          "name": "tokenId",
          "type": "uint256"
        }
      ],
      "name": "safeTransferFrom",
      "outputs": [],
      "stateMutability": "nonpayable",
      "type": "function"
    },
    {
      "inputs": [
        {
          "internalType": "address",
          "name": "from",
          "type": "address"
        },
        {
          "internalType": "address",
          "name": "to",
          "type": "address"
        },
        {
          "internalType": "uint256",
          "name": "tokenId",
          "type": "uint256"
        },
        {
          "internalType": "bytes",
          "name": "_data",
          "type": "bytes"
        }
      ],
      "name": "safeTransferFrom",
      "outputs": [],
      "stateMutability": "nonpayable",
      "type": "function"
    },
    {
      "inputs": [
        {
          "internalType": "address",
          "name": "operator",
          "type": "address"
        },
        {
          "internalType": "bool",
          "name": "approved",
          "type": "bool"
        }
      ],
      "name": "setApprovalForAll",
      "outputs": [],
      "stateMutability": "nonpayable",
      "type": "function"
    },
    {
      "inputs": [
        {
          "internalType": "bytes4",
          "name": "interfaceId",
          "type": "bytes4"
        }
      ],
      "name": "supportsInterface",
      "outputs": [
        {
          "internalType": "bool",
          "name": "",
          "type": "bool"
        }
      ],
      "stateMutability": "view",
      "type": "function"
    },
    {
      "inputs": [],
      "name": "symbol",
      "outputs": [
        {
          "internalType": "string",
          "name": "",
          "type": "string"
        }
      ],
      "stateMutability": "view",
      "type": "function"
    },
    {
      "inputs": [
        {
          "internalType": "uint256",
          "name": "tokenId",
          "type": "uint256"
        }
      ],
      "name": "tokenURI",
      "outputs": [
        {
          "internalType": "string",
          "name": "",
          "type": "string"
        }
      ],
      "stateMutability": "view",
      "type": "function"
    },
    {
      "inputs": [
        {
          "internalType": "address",
          "name": "from",
          "type": "address"
        },
        {
          "internalType": "address",
          "name": "to",
          "type": "address"
        },
        {
          "internalType": "uint256",
          "name": "tokenId",
          "type": "uint256"
        }
      ],
      "name": "transferFrom",
      "outputs": [],
      "stateMutability": "nonpayable",
      "type": "function"
    },
    {
      "inputs": [
        {
          "internalType": "address",
          "name": "newOwner",
          "type": "address"
        }
      ],
      "name": "transferOwnership",
      "outputs": [],
      "stateMutability": "nonpayable",
      "type": "function"
    }
  ],
  "bytecode": "0x60806040523480156200001157600080fd5b506040518060400160405280600b81526020017f4d794e4654536f757263650000000000000000000000000000000000000000008152506040518060400160405280600581526020017f4d4e46545300000000000000000000000000000000000000000000000000000081525081600090816200008f919062000412565b508060019081620000a1919062000412565b505050620000c4620000b8620000ca60201b60201c565b620000d260201b60201c565b620004f9565b600033905090565b6000600760009054906101000a900473ffffffffffffffffffffffffffffffffffffffff16905081600760006101000a81548173ffffffffffffffffffffffffffffffffffffffff021916908373ffffffffffffffffffffffffffffffffffffffff1602179055508173ffffffffffffffffffffffffffffffffffffffff168173ffffffffffffffffffffffffffffffffffffffff167f8be0079c531659141344cd1fd0a4f28419497f9722a3daafe3b4186f6b6457e060405160405180910390a35050565b600081519050919050565b7f4e487b7100000000000000000000000000000000000000000000000000000000600052604160045260246000fd5b7f4e487b7100000000000000000000000000000000000000000000000000000000600052602260045260246000fd5b600060028204905060018216806200021a57607f821691505b60208210810362000230576200022f620001d2565b5b50919050565b60008190508160005260206000209050919050565b60006020601f8301049050919050565b600082821b905092915050565b6000600883026200029a7fffffffffffffffffffffffffffffffffffffffffffffffffffffffffffffffff826200025b565b620002a686836200025b565b95508019841693508086168417925050509392505050565b6000819050919050565b6000819050919050565b6000620002f3620002ed620002e784620002be565b620002c8565b620002be565b9050919050565b6000819050919050565b6200030f83620002d2565b620003276200031e82620002fa565b84845462000268565b825550505050565b600090565b6200033e6200032f565b6200034b81848462000304565b505050565b5b8181101562000373576200036760008262000334565b60018101905062000351565b5050565b601f821115620003c2576200038c8162000236565b62000397846200024b565b81016020851015620003a7578190505b620003bf620003b6856200024b565b83018262000350565b50505b505050565b600082821c905092915050565b6000620003e760001984600802620003c7565b1980831691505092915050565b6000620004028383620003d4565b9150826002028217905092915050565b6200041d8262000198565b67ffffffffffffffff811115620004395762000438620001a3565b5b62000445825462000201565b6200045282828562000377565b600060209050601f8311600181146200048a576000841562000475578287015190505b620004818582620003f4565b865550620004f1565b601f1984166200049a8662000236565b60005b82811015620004c4578489015182556001820191506020850194506020810190506200049d565b86831015620004e45784890151620004e0601f891682620003d4565b8355505b6001600288020188555050505b505050505050565b61339d80620005096000396000f3fe608060405234801561001057600080fd5b50600436106101165760003560e01c806370a08231116100a2578063a22cb46511610071578063a22cb465146102cb578063b88d4fde146102e7578063c87b56dd14610303578063e985e9c514610333578063f2fde38b1461036357610116565b806370a0823114610255578063715018a6146102855780638da5cb5b1461028f57806395d89b41146102ad57610116565b806323b872dd116100e957806323b872dd146101b557806342842e0e146101d157806342966c68146101ed5780636352211e146102095780636a6278421461023957610116565b806301ffc9a71461011b57806306fdde031461014b578063081812fc14610169578063095ea7b314610199575b600080fd5b61013560048036038101906101309190611dc7565b61037f565b6040516101429190611e0f565b60405180910390f35b610153610461565b6040516101609190611eba565b60405180910390f35b610183600480360381019061017e9190611f12565b6104f3565b6040516101909190611f80565b60405180910390f35b6101b360048036038101906101ae9190611fc7565b610578565b005b6101cf60048036038101906101ca9190612007565b61068f565b005b6101eb60048036038101906101e69190612007565b6106ef565b005b61020760048036038101906102029190611f12565b61070f565b005b610223600480360381019061021e9190611f12565b61076b565b6040516102309190611f80565b60405180910390f35b610253600480360381019061024e919061205a565b61081c565b005b61026f600480360381019061026a919061205a565b610861565b60405161027c9190612096565b60405180910390f35b61028d610918565b005b6102976109a0565b6040516102a49190611f80565b60405180910390f35b6102b56109ca565b6040516102c29190611eba565b60405180910390f35b6102e560048036038101906102e091906120dd565b610a5c565b005b61030160048036038101906102fc9190612252565b610bdc565b005b61031d60048036038101906103189190611f12565b610c3e565b60405161032a9190611eba565b60405180910390f35b61034d600480360381019061034891906122d5565b610c50565b60405161035a9190611e0f565b60405180910390f35b61037d6004803603810190610378919061205a565b610ce4565b005b60007f80ac58cd000000000000000000000000000000000000000000000000000000007bffffffffffffffffffffffffffffffffffffffffffffffffffffffff1916827bffffffffffffffffffffffffffffffffffffffffffffffffffffffff1916148061044a57507f5b5e139f000000000000000000000000000000000000000000000000000000007bffffffffffffffffffffffffffffffffffffffffffffffffffffffff1916827bffffffffffffffffffffffffffffffffffffffffffffffffffffffff1916145b8061045a575061045982610ddb565b5b9050919050565b60606000805461047090612344565b80601f016020809104026020016040519081016040528092919081815260200182805461049c90612344565b80156104e95780601f106104be576101008083540402835291602001916104e9565b820191906000526020600020905b8154815290600101906020018083116104cc57829003601f168201915b5050505050905090565b60006104fe82610e45565b61053d576040517f08c379a0000000000000000000000000000000000000000000000000000000008152600401610534906123e7565b60405180910390fd5b6004600083815260200190815260200160002060009054906101000a900473ffffffffffffffffffffffffffffffffffffffff169050919050565b60006105838261076b565b90508073ffffffffffffffffffffffffffffffffffffffff168373ffffffffffffffffffffffffffffffffffffffff16036105f3576040517f08c379a00000000000000000000000000000000000000000000000000000000081526004016105ea90612479565b60405180910390fd5b8073ffffffffffffffffffffffffffffffffffffffff16610612610eb1565b73ffffffffffffffffffffffffffffffffffffffff16148061064157506106408161063b610eb1565b610c50565b5b610680576040517f08c379a00000000000000000000000000000000000000000000000000000000081526004016106779061250b565b60405180910390fd5b61068a8383610eb9565b505050565b6106a061069a610eb1565b82610f72565b6106df576040517f08c379a00000000000000000000000000000000000000000000000000000000081526004016106d69061259d565b60405180910390fd5b6106ea838383611050565b505050565b61070a83838360405180602001604052806000815250610bdc565b505050565b61072061071a610eb1565b82610f72565b61075f576040517f08c379a00000000000000000000000000000000000000000000000000000000081526004016107569061262f565b60405180910390fd5b610768816112ab565b50565b6000806002600084815260200190815260200160002060009054906101000a900473ffffffffffffffffffffffffffffffffffffffff169050600073ffffffffffffffffffffffffffffffffffffffff168173ffffffffffffffffffffffffffffffffffffffff1603610813576040517f08c379a000000000000000000000000000000000000000000000000000000000815260040161080a906126c1565b60405180910390fd5b80915050919050565b610828816008546112b7565b61084c600854604051806080016040528060548152602001613314605491396112d5565b60086000815480929190600101919050555050565b60008073ffffffffffffffffffffffffffffffffffffffff168273ffffffffffffffffffffffffffffffffffffffff16036108d1576040517f08c379a00000000000000000000000000000000000000000000000000000000081526004016108c890612753565b60405180910390fd5b600360008373ffffffffffffffffffffffffffffffffffffffff1673ffffffffffffffffffffffffffffffffffffffff168152602001908152602001600020549050919050565b610920610eb1565b73ffffffffffffffffffffffffffffffffffffffff1661093e6109a0565b73ffffffffffffffffffffffffffffffffffffffff1614610994576040517f08c379a000000000000000000000000000000000000000000000000000000000815260040161098b906127bf565b60405180910390fd5b61099e6000611342565b565b6000600760009054906101000a900473ffffffffffffffffffffffffffffffffffffffff16905090565b6060600180546109d990612344565b80601f0160208091040260200160405190810160405280929190818152602001828054610a0590612344565b8015610a525780601f10610a2757610100808354040283529160200191610a52565b820191906000526020600020905b815481529060010190602001808311610a3557829003601f168201915b5050505050905090565b610a64610eb1565b73ffffffffffffffffffffffffffffffffffffffff168273ffffffffffffffffffffffffffffffffffffffff1603610ad1576040517f08c379a0000000000000000000000000000000000000000000000000000000008152600401610ac89061282b565b60405180910390fd5b8060056000610ade610eb1565b73ffffffffffffffffffffffffffffffffffffffff1673ffffffffffffffffffffffffffffffffffffffff16815260200190815260200160002060008473ffffffffffffffffffffffffffffffffffffffff1673ffffffffffffffffffffffffffffffffffffffff16815260200190815260200160002060006101000a81548160ff0219169083151502179055508173ffffffffffffffffffffffffffffffffffffffff16610b8b610eb1565b73ffffffffffffffffffffffffffffffffffffffff167f17307eab39ab6107e8899845ad3d59bd9653f200f220920489ca2b5937696c3183604051610bd09190611e0f565b60405180910390a35050565b610bed610be7610eb1565b83610f72565b610c2c576040517f08c379a0000000000000000000000000000000000000000000000000000000008152600401610c239061259d565b60405180910390fd5b610c3884848484611408565b50505050565b6060610c4982611464565b9050919050565b6000600560008473ffffffffffffffffffffffffffffffffffffffff1673ffffffffffffffffffffffffffffffffffffffff16815260200190815260200160002060008373ffffffffffffffffffffffffffffffffffffffff1673ffffffffffffffffffffffffffffffffffffffff16815260200190815260200160002060009054906101000a900460ff16905092915050565b610cec610eb1565b73ffffffffffffffffffffffffffffffffffffffff16610d0a6109a0565b73ffffffffffffffffffffffffffffffffffffffff1614610d60576040517f08c379a0000000000000000000000000000000000000000000000000000000008152600401610d57906127bf565b60405180910390fd5b600073ffffffffffffffffffffffffffffffffffffffff168173ffffffffffffffffffffffffffffffffffffffff1603610dcf576040517f08c379a0000000000000000000000000000000000000000000000000000000008152600401610dc6906128bd565b60405180910390fd5b610dd881611342565b50565b60007f01ffc9a7000000000000000000000000000000000000000000000000000000007bffffffffffffffffffffffffffffffffffffffffffffffffffffffff1916827bffffffffffffffffffffffffffffffffffffffffffffffffffffffff1916149050919050565b60008073ffffffffffffffffffffffffffffffffffffffff166002600084815260200190815260200160002060009054906101000a900473ffffffffffffffffffffffffffffffffffffffff1673ffffffffffffffffffffffffffffffffffffffff1614159050919050565b600033905090565b816004600083815260200190815260200160002060006101000a81548173ffffffffffffffffffffffffffffffffffffffff021916908373ffffffffffffffffffffffffffffffffffffffff160217905550808273ffffffffffffffffffffffffffffffffffffffff16610f2c8361076b565b73ffffffffffffffffffffffffffffffffffffffff167f8c5be1e5ebec7d5bd14f71427d1e84f3dd0314c0f7b2291e5b200ac8c7c3b92560405160405180910390a45050565b6000610f7d82610e45565b610fbc576040517f08c379a0000000000000000000000000000000000000000000000000000000008152600401610fb39061294f565b60405180910390fd5b6000610fc78361076b565b90508073ffffffffffffffffffffffffffffffffffffffff168473ffffffffffffffffffffffffffffffffffffffff16148061103657508373ffffffffffffffffffffffffffffffffffffffff1661101e846104f3565b73ffffffffffffffffffffffffffffffffffffffff16145b8061104757506110468185610c50565b5b91505092915050565b8273ffffffffffffffffffffffffffffffffffffffff166110708261076b565b73ffffffffffffffffffffffffffffffffffffffff16146110c6576040517f08c379a00000000000000000000000000000000000000000000000000000000081526004016110bd906129e1565b60405180910390fd5b600073ffffffffffffffffffffffffffffffffffffffff168273ffffffffffffffffffffffffffffffffffffffff1603611135576040517f08c379a000000000000000000000000000000000000000000000000000000000815260040161112c90612a73565b60405180910390fd5b6111408383836115b5565b61114b600082610eb9565b6001600360008573ffffffffffffffffffffffffffffffffffffffff1673ffffffffffffffffffffffffffffffffffffffff168152602001908152602001600020600082825461119b9190612ac2565b925050819055506001600360008473ffffffffffffffffffffffffffffffffffffffff1673ffffffffffffffffffffffffffffffffffffffff16815260200190815260200160002060008282546111f29190612af6565b92505081905550816002600083815260200190815260200160002060006101000a81548173ffffffffffffffffffffffffffffffffffffffff021916908373ffffffffffffffffffffffffffffffffffffffff160217905550808273ffffffffffffffffffffffffffffffffffffffff168473ffffffffffffffffffffffffffffffffffffffff167fddf252ad1be2c89b69c2b068fc378daa952ba7f163c4a11628f55a4df523b3ef60405160405180910390a4505050565b6112b4816115ba565b50565b6112d182826040518060200160405280600081525061160d565b5050565b6112de82610e45565b61131d576040517f08c379a000000000000000000000000000000000000000000000000000000000815260040161131490612b9c565b60405180910390fd5b8060066000848152602001908152602001600020908161133d9190612d68565b505050565b6000600760009054906101000a900473ffffffffffffffffffffffffffffffffffffffff16905081600760006101000a81548173ffffffffffffffffffffffffffffffffffffffff021916908373ffffffffffffffffffffffffffffffffffffffff1602179055508173ffffffffffffffffffffffffffffffffffffffff168173ffffffffffffffffffffffffffffffffffffffff167f8be0079c531659141344cd1fd0a4f28419497f9722a3daafe3b4186f6b6457e060405160405180910390a35050565b611413848484611050565b61141f84848484611668565b61145e576040517f08c379a000000000000000000000000000000000000000000000000000000000815260040161145590612eac565b60405180910390fd5b50505050565b606061146f82610e45565b6114ae576040517f08c379a00000000000000000000000000000000000000000000000000000000081526004016114a590612f3e565b60405180910390fd5b60006006600084815260200190815260200160002080546114ce90612344565b80601f01602080910402602001604051908101604052809291908181526020018280546114fa90612344565b80156115475780601f1061151c57610100808354040283529160200191611547565b820191906000526020600020905b81548152906001019060200180831161152a57829003601f168201915b5050505050905060006115586117ef565b9050600081510361156d5781925050506115b0565b6000825111156115a257808260405160200161158a929190612f9a565b604051602081830303815290604052925050506115b0565b6115ab84611806565b925050505b919050565b505050565b6115c3816118ad565b60006006600083815260200190815260200160002080546115e390612344565b90501461160a576006600082815260200190815260200160002060006116099190611cfe565b5b50565b61161783836119be565b6116246000848484611668565b611663576040517f08c379a000000000000000000000000000000000000000000000000000000000815260040161165a90612eac565b60405180910390fd5b505050565b60006116898473ffffffffffffffffffffffffffffffffffffffff16611b8b565b156117e2578373ffffffffffffffffffffffffffffffffffffffff1663150b7a026116b2610eb1565b8786866040518563ffffffff1660e01b81526004016116d49493929190613013565b6020604051808303816000875af192505050801561171057506040513d601f19601f8201168201806040525081019061170d9190613074565b60015b611792573d8060008114611740576040519150601f19603f3d011682016040523d82523d6000602084013e611745565b606091505b50600081510361178a576040517f08c379a000000000000000000000000000000000000000000000000000000000815260040161178190612eac565b60405180910390fd5b805181602001fd5b63150b7a0260e01b7bffffffffffffffffffffffffffffffffffffffffffffffffffffffff1916817bffffffffffffffffffffffffffffffffffffffffffffffffffffffff1916149150506117e7565b600190505b949350505050565b606060405180602001604052806000815250905090565b606061181182610e45565b611850576040517f08c379a000000000000000000000000000000000000000000000000000000000815260040161184790613113565b60405180910390fd5b600061185a6117ef565b9050600081511161187a57604051806020016040528060008152506118a5565b8061188484611b9e565b604051602001611895929190612f9a565b6040516020818303038152906040525b915050919050565b60006118b88261076b565b90506118c6816000846115b5565b6118d1600083610eb9565b6001600360008373ffffffffffffffffffffffffffffffffffffffff1673ffffffffffffffffffffffffffffffffffffffff16815260200190815260200160002060008282546119219190612ac2565b925050819055506002600083815260200190815260200160002060006101000a81549073ffffffffffffffffffffffffffffffffffffffff021916905581600073ffffffffffffffffffffffffffffffffffffffff168273ffffffffffffffffffffffffffffffffffffffff167fddf252ad1be2c89b69c2b068fc378daa952ba7f163c4a11628f55a4df523b3ef60405160405180910390a45050565b600073ffffffffffffffffffffffffffffffffffffffff168273ffffffffffffffffffffffffffffffffffffffff1603611a2d576040517f08c379a0000000000000000000000000000000000000000000000000000000008152600401611a249061317f565b60405180910390fd5b611a3681610e45565b15611a76576040517f08c379a0000000000000000000000000000000000000000000000000000000008152600401611a6d906131eb565b60405180910390fd5b611a82600083836115b5565b6001600360008473ffffffffffffffffffffffffffffffffffffffff1673ffffffffffffffffffffffffffffffffffffffff1681526020019081526020016000206000828254611ad29190612af6565b92505081905550816002600083815260200190815260200160002060006101000a81548173ffffffffffffffffffffffffffffffffffffffff021916908373ffffffffffffffffffffffffffffffffffffffff160217905550808273ffffffffffffffffffffffffffffffffffffffff16600073ffffffffffffffffffffffffffffffffffffffff167fddf252ad1be2c89b69c2b068fc378daa952ba7f163c4a11628f55a4df523b3ef60405160405180910390a45050565b600080823b905060008111915050919050565b606060008203611be5576040518060400160405280600181526020017f30000000000000000000000000000000000000000000000000000000000000008152509050611cf9565b600082905060005b60008214611c17578080611c009061320b565b915050600a82611c109190613282565b9150611bed565b60008167ffffffffffffffff811115611c3357611c32612127565b5b6040519080825280601f01601f191660200182016040528015611c655781602001600182028036833780820191505090505b5090505b60008514611cf257600182611c7e9190612ac2565b9150600a85611c8d91906132b3565b6030611c999190612af6565b60f81b818381518110611caf57611cae6132e4565b5b60200101907effffffffffffffffffffffffffffffffffffffffffffffffffffffffffffff1916908160001a905350600a85611ceb9190613282565b9450611c69565b8093505050505b919050565b508054611d0a90612344565b6000825580601f10611d1c5750611d3b565b601f016020900490600052602060002090810190611d3a9190611d3e565b5b50565b5b80821115611d57576000816000905550600101611d3f565b5090565b6000604051905090565b600080fd5b600080fd5b60007fffffffff0000000000000000000000000000000000000000000000000000000082169050919050565b611da481611d6f565b8114611daf57600080fd5b50565b600081359050611dc181611d9b565b92915050565b600060208284031215611ddd57611ddc611d65565b5b6000611deb84828501611db2565b91505092915050565b60008115159050919050565b611e0981611df4565b82525050565b6000602082019050611e246000830184611e00565b92915050565b600081519050919050565b600082825260208201905092915050565b60005b83811015611e64578082015181840152602081019050611e49565b60008484015250505050565b6000601f19601f8301169050919050565b6000611e8c82611e2a565b611e968185611e35565b9350611ea6818560208601611e46565b611eaf81611e70565b840191505092915050565b60006020820190508181036000830152611ed48184611e81565b905092915050565b6000819050919050565b611eef81611edc565b8114611efa57600080fd5b50565b600081359050611f0c81611ee6565b92915050565b600060208284031215611f2857611f27611d65565b5b6000611f3684828501611efd565b91505092915050565b600073ffffffffffffffffffffffffffffffffffffffff82169050919050565b6000611f6a82611f3f565b9050919050565b611f7a81611f5f565b82525050565b6000602082019050611f956000830184611f71565b92915050565b611fa481611f5f565b8114611faf57600080fd5b50565b600081359050611fc181611f9b565b92915050565b60008060408385031215611fde57611fdd611d65565b5b6000611fec85828601611fb2565b9250506020611ffd85828601611efd565b9150509250929050565b6000806000606084860312156120205761201f611d65565b5b600061202e86828701611fb2565b935050602061203f86828701611fb2565b925050604061205086828701611efd565b9150509250925092565b6000602082840312156120705761206f611d65565b5b600061207e84828501611fb2565b91505092915050565b61209081611edc565b82525050565b60006020820190506120ab6000830184612087565b92915050565b6120ba81611df4565b81146120c557600080fd5b50565b6000813590506120d7816120b1565b92915050565b600080604083850312156120f4576120f3611d65565b5b600061210285828601611fb2565b9250506020612113858286016120c8565b9150509250929050565b600080fd5b600080fd5b7f4e487b7100000000000000000000000000000000000000000000000000000000600052604160045260246000fd5b61215f82611e70565b810181811067ffffffffffffffff8211171561217e5761217d612127565b5b80604052505050565b6000612191611d5b565b905061219d8282612156565b919050565b600067ffffffffffffffff8211156121bd576121bc612127565b5b6121c682611e70565b9050602081019050919050565b82818337600083830152505050565b60006121f56121f0846121a2565b612187565b90508281526020810184848401111561221157612210612122565b5b61221c8482856121d3565b509392505050565b600082601f8301126122395761223861211d565b5b81356122498482602086016121e2565b91505092915050565b6000806000806080858703121561226c5761226b611d65565b5b600061227a87828801611fb2565b945050602061228b87828801611fb2565b935050604061229c87828801611efd565b925050606085013567ffffffffffffffff8111156122bd576122bc611d6a565b5b6122c987828801612224565b91505092959194509250565b600080604083850312156122ec576122eb611d65565b5b60006122fa85828601611fb2565b925050602061230b85828601611fb2565b9150509250929050565b7f4e487b7100000000000000000000000000000000000000000000000000000000600052602260045260246000fd5b6000600282049050600182168061235c57607f821691505b60208210810361236f5761236e612315565b5b50919050565b7f4552433732313a20617070726f76656420717565727920666f72206e6f6e657860008201527f697374656e7420746f6b656e0000000000000000000000000000000000000000602082015250565b60006123d1602c83611e35565b91506123dc82612375565b604082019050919050565b60006020820190508181036000830152612400816123c4565b9050919050565b7f4552433732313a20617070726f76616c20746f2063757272656e74206f776e6560008201527f7200000000000000000000000000000000000000000000000000000000000000602082015250565b6000612463602183611e35565b915061246e82612407565b604082019050919050565b6000602082019050818103600083015261249281612456565b9050919050565b7f4552433732313a20617070726f76652063616c6c6572206973206e6f74206f7760008201527f6e6572206e6f7220617070726f76656420666f7220616c6c0000000000000000602082015250565b60006124f5603883611e35565b915061250082612499565b604082019050919050565b60006020820190508181036000830152612524816124e8565b9050919050565b7f4552433732313a207472616e736665722063616c6c6572206973206e6f74206f60008201527f776e6572206e6f7220617070726f766564000000000000000000000000000000602082015250565b6000612587603183611e35565b91506125928261252b565b604082019050919050565b600060208201905081810360008301526125b68161257a565b9050919050565b7f4552433732314275726e61626c653a2063616c6c6572206973206e6f74206f7760008201527f6e6572206e6f7220617070726f76656400000000000000000000000000000000602082015250565b6000612619603083611e35565b9150612624826125bd565b604082019050919050565b600060208201905081810360008301526126488161260c565b9050919050565b7f4552433732313a206f776e657220717565727920666f72206e6f6e657869737460008201527f656e7420746f6b656e0000000000000000000000000000000000000000000000602082015250565b60006126ab602983611e35565b91506126b68261264f565b604082019050919050565b600060208201905081810360008301526126da8161269e565b9050919050565b7f4552433732313a2062616c616e636520717565727920666f7220746865207a6560008201527f726f206164647265737300000000000000000000000000000000000000000000602082015250565b600061273d602a83611e35565b9150612748826126e1565b604082019050919050565b6000602082019050818103600083015261276c81612730565b9050919050565b7f4f776e61626c653a2063616c6c6572206973206e6f7420746865206f776e6572600082015250565b60006127a9602083611e35565b91506127b482612773565b602082019050919050565b600060208201905081810360008301526127d88161279c565b9050919050565b7f4552433732313a20617070726f766520746f2063616c6c657200000000000000600082015250565b6000612815601983611e35565b9150612820826127df565b602082019050919050565b6000602082019050818103600083015261284481612808565b9050919050565b7f4f776e61626c653a206e6577206f776e657220697320746865207a65726f206160008201527f6464726573730000000000000000000000000000000000000000000000000000602082015250565b60006128a7602683611e35565b91506128b28261284b565b604082019050919050565b600060208201905081810360008301526128d68161289a565b9050919050565b7f4552433732313a206f70657261746f7220717565727920666f72206e6f6e657860008201527f697374656e7420746f6b656e0000000000000000000000000000000000000000602082015250565b6000612939602c83611e35565b9150612944826128dd565b604082019050919050565b600060208201905081810360008301526129688161292c565b9050919050565b7f4552433732313a207472616e73666572206f6620746f6b656e2074686174206960008201527f73206e6f74206f776e0000000000000000000000000000000000000000000000602082015250565b60006129cb602983611e35565b91506129d68261296f565b604082019050919050565b600060208201905081810360008301526129fa816129be565b9050919050565b7f4552433732313a207472616e7366657220746f20746865207a65726f2061646460008201527f7265737300000000000000000000000000000000000000000000000000000000602082015250565b6000612a5d602483611e35565b9150612a6882612a01565b604082019050919050565b60006020820190508181036000830152612a8c81612a50565b9050919050565b7f4e487b7100000000000000000000000000000000000000000000000000000000600052601160045260246000fd5b6000612acd82611edc565b9150612ad883611edc565b9250828203905081811115612af057612aef612a93565b5b92915050565b6000612b0182611edc565b9150612b0c83611edc565b9250828201905080821115612b2457612b23612a93565b5b92915050565b7f45524337323155524953746f726167653a2055524920736574206f66206e6f6e60008201527f6578697374656e7420746f6b656e000000000000000000000000000000000000602082015250565b6000612b86602e83611e35565b9150612b9182612b2a565b604082019050919050565b60006020820190508181036000830152612bb581612b79565b9050919050565b60008190508160005260206000209050919050565b60006020601f8301049050919050565b600082821b905092915050565b600060088302612c1e7fffffffffffffffffffffffffffffffffffffffffffffffffffffffffffffffff82612be1565b612c288683612be1565b95508019841693508086168417925050509392505050565b6000819050919050565b6000612c65612c60612c5b84611edc565b612c40565b611edc565b9050919050565b6000819050919050565b612c7f83612c4a565b612c93612c8b82612c6c565b848454612bee565b825550505050565b600090565b612ca8612c9b565b612cb3818484612c76565b505050565b5b81811015612cd757612ccc600082612ca0565b600181019050612cb9565b5050565b601f821115612d1c57612ced81612bbc565b612cf684612bd1565b81016020851015612d05578190505b612d19612d1185612bd1565b830182612cb8565b50505b505050565b600082821c905092915050565b6000612d3f60001984600802612d21565b1980831691505092915050565b6000612d588383612d2e565b9150826002028217905092915050565b612d7182611e2a565b67ffffffffffffffff811115612d8a57612d89612127565b5b612d948254612344565b612d9f828285612cdb565b600060209050601f831160018114612dd25760008415612dc0578287015190505b612dca8582612d4c565b865550612e32565b601f198416612de086612bbc565b60005b82811015612e0857848901518255600182019150602085019450602081019050612de3565b86831015612e255784890151612e21601f891682612d2e565b8355505b6001600288020188555050505b505050505050565b7f4552433732313a207472616e7366657220746f206e6f6e20455243373231526560008201527f63656976657220696d706c656d656e7465720000000000000000000000000000602082015250565b6000612e96603283611e35565b9150612ea182612e3a565b604082019050919050565b60006020820190508181036000830152612ec581612e89565b9050919050565b7f45524337323155524953746f726167653a2055524920717565727920666f722060008201527f6e6f6e6578697374656e7420746f6b656e000000000000000000000000000000602082015250565b6000612f28603183611e35565b9150612f3382612ecc565b604082019050919050565b60006020820190508181036000830152612f5781612f1b565b9050919050565b600081905092915050565b6000612f7482611e2a565b612f7e8185612f5e565b9350612f8e818560208601611e46565b80840191505092915050565b6000612fa68285612f69565b9150612fb28284612f69565b91508190509392505050565b600081519050919050565b600082825260208201905092915050565b6000612fe582612fbe565b612fef8185612fc9565b9350612fff818560208601611e46565b61300881611e70565b840191505092915050565b60006080820190506130286000830187611f71565b6130356020830186611f71565b6130426040830185612087565b81810360608301526130548184612fda565b905095945050505050565b60008151905061306e81611d9b565b92915050565b60006020828403121561308a57613089611d65565b5b60006130988482850161305f565b91505092915050565b7f4552433732314d657461646174613a2055524920717565727920666f72206e6f60008201527f6e6578697374656e7420746f6b656e0000000000000000000000000000000000602082015250565b60006130fd602f83611e35565b9150613108826130a1565b604082019050919050565b6000602082019050818103600083015261312c816130f0565b9050919050565b7f4552433732313a206d696e7420746f20746865207a65726f2061646472657373600082015250565b6000613169602083611e35565b915061317482613133565b602082019050919050565b600060208201905081810360008301526131988161315c565b9050919050565b7f4552433732313a20746f6b656e20616c7265616479206d696e74656400000000600082015250565b60006131d5601c83611e35565b91506131e08261319f565b602082019050919050565b60006020820190508181036000830152613204816131c8565b9050919050565b600061321682611edc565b91507fffffffffffffffffffffffffffffffffffffffffffffffffffffffffffffffff820361324857613247612a93565b5b600182019050919050565b7f4e487b7100000000000000000000000000000000000000000000000000000000600052601260045260246000fd5b600061328d82611edc565b915061329883611edc565b9250826132a8576132a7613253565b5b828204905092915050565b60006132be82611edc565b91506132c983611edc565b9250826132d9576132d8613253565b5b828206905092915050565b7f4e487b7100000000000000000000000000000000000000000000000000000000600052603260045260246000fdfe68747470733a2f2f697066732e696f2f697066732f516d59754b593435417138374c654c315235646862316871484c70365a46624a614350386a78714b4d314d5836792f626162655f727574685f312e6a736f6ea264697066735822122002512dbd0b98e422795b0f0f7e34eef72fb2ba8a0a9045ffe5ca9d511128739264736f6c63430008130033",
  "linkReferences": {},
  "deployedLinkReferences": {}
}