{
  "_format": "hh-sol-artifact-1",
  "contractName": "SourceMinter",
  "sourceName": "contracts/SourceMinter.sol",
  "abi": [
    {
      "inputs": [
        {
          "internalType": "address",
          "name": "router",
          "type": "address"
        },
        {
          "internalType": "address",
          "name": "link",
          "type": "address"
        },
        {
          "internalType": "address",
          "name": "smartContractAddress",
          "type": "address"
        }
      ],
      "stateMutability": "nonpayable",
      "type": "constructor"
    },
    {
      "inputs": [
        {
          "internalType": "address",
          "name": "owner",
          "type": "address"
        },
        {
          "internalType": "address",
          "name": "target",
          "type": "address"
        },
        {
          "internalType": "uint256",
          "name": "value",
          "type": "uint256"
        }
      ],
      "name": "FailedToWithdrawEth",
      "type": "error"
    },
    {
      "anonymous": false,
      "inputs": [
        {
          "indexed": false,
          "internalType": "bytes32",
          "name": "messageId",
          "type": "bytes32"
        }
      ],
      "name": "MessageSent",
      "type": "event"
    },
    {
      "anonymous": false,
      "inputs": [
        {
          "indexed": true,
          "internalType": "address",
          "name": "from",
          "type": "address"
        },
        {
          "indexed": true,
          "internalType": "address",
          "name": "to",
          "type": "address"
        }
      ],
      "name": "OwnershipTransferRequested",
      "type": "event"
    },
    {
      "anonymous": false,
      "inputs": [
        {
          "indexed": true,
          "internalType": "address",
          "name": "from",
          "type": "address"
        },
        {
          "indexed": true,
          "internalType": "address",
          "name": "to",
          "type": "address"
        }
      ],
      "name": "OwnershipTransferred",
      "type": "event"
    },
    {
      "inputs": [],
      "name": "acceptOwnership",
      "outputs": [],
      "stateMutability": "nonpayable",
      "type": "function"
    },
    {
      "inputs": [
        {
          "internalType": "uint64",
          "name": "destinationChainSelector",
          "type": "uint64"
        },
        {
          "internalType": "address",
          "name": "receiver",
          "type": "address"
        },
        {
          "internalType": "enum SourceMinter.PayFeesIn",
          "name": "payFeesIn",
          "type": "uint8"
        },
        {
          "internalType": "uint256",
          "name": "tokenId",
          "type": "uint256"
        }
      ],
      "name": "mint",
      "outputs": [],
      "stateMutability": "nonpayable",
      "type": "function"
    },
    {
      "inputs": [],
      "name": "owner",
      "outputs": [
        {
          "internalType": "address",
          "name": "",
          "type": "address"
        }
      ],
      "stateMutability": "view",
      "type": "function"
    },
    {
      "inputs": [
        {
          "internalType": "address",
          "name": "to",
          "type": "address"
        }
      ],
      "name": "transferOwnership",
      "outputs": [],
      "stateMutability": "nonpayable",
      "type": "function"
    },
    {
      "inputs": [
        {
          "internalType": "address",
          "name": "beneficiary",
          "type": "address"
        }
      ],
      "name": "withdraw",
      "outputs": [],
      "stateMutability": "nonpayable",
      "type": "function"
    },
    {
      "inputs": [
        {
          "internalType": "address",
          "name": "beneficiary",
          "type": "address"
        },
        {
          "internalType": "address",
          "name": "token",
          "type": "address"
        }
      ],
      "name": "withdrawToken",
      "outputs": [],
      "stateMutability": "nonpayable",
      "type": "function"
    },
    {
      "stateMutability": "payable",
      "type": "receive"
    }
  ],
  "bytecode": "0x60e06040523480156200001157600080fd5b5060405162001a0b38038062001a0b83398181016040528101906200003791906200041c565b338060008073ffffffffffffffffffffffffffffffffffffffff168273ffffffffffffffffffffffffffffffffffffffff1603620000ac576040517f08c379a0000000000000000000000000000000000000000000000000000000008152600401620000a390620004d9565b60405180910390fd5b816000806101000a81548173ffffffffffffffffffffffffffffffffffffffff021916908373ffffffffffffffffffffffffffffffffffffffff160217905550600073ffffffffffffffffffffffffffffffffffffffff168173ffffffffffffffffffffffffffffffffffffffff1614620001335762000132816200028360201b60201c565b5b5050508273ffffffffffffffffffffffffffffffffffffffff1660808173ffffffffffffffffffffffffffffffffffffffff16815250508173ffffffffffffffffffffffffffffffffffffffff1660a08173ffffffffffffffffffffffffffffffffffffffff16815250508073ffffffffffffffffffffffffffffffffffffffff1660c08173ffffffffffffffffffffffffffffffffffffffff168152505060a05173ffffffffffffffffffffffffffffffffffffffff1663095ea7b36080517fffffffffffffffffffffffffffffffffffffffffffffffffffffffffffffffff6040518363ffffffff1660e01b81526004016200023392919062000527565b6020604051808303816000875af115801562000253573d6000803e3d6000fd5b505050506040513d601f19601f8201168201806040525081019062000279919062000591565b5050505062000635565b3373ffffffffffffffffffffffffffffffffffffffff168173ffffffffffffffffffffffffffffffffffffffff1603620002f4576040517f08c379a0000000000000000000000000000000000000000000000000000000008152600401620002eb9062000613565b60405180910390fd5b80600160006101000a81548173ffffffffffffffffffffffffffffffffffffffff021916908373ffffffffffffffffffffffffffffffffffffffff1602179055508073ffffffffffffffffffffffffffffffffffffffff1660008054906101000a900473ffffffffffffffffffffffffffffffffffffffff1673ffffffffffffffffffffffffffffffffffffffff167fed8889f560326eb138920d842192f0eb3dd22b4f139c87a2c57538e05bae127860405160405180910390a350565b600080fd5b600073ffffffffffffffffffffffffffffffffffffffff82169050919050565b6000620003e482620003b7565b9050919050565b620003f681620003d7565b81146200040257600080fd5b50565b6000815190506200041681620003eb565b92915050565b600080600060608486031215620004385762000437620003b2565b5b6000620004488682870162000405565b93505060206200045b8682870162000405565b92505060406200046e8682870162000405565b9150509250925092565b600082825260208201905092915050565b7f43616e6e6f7420736574206f776e657220746f207a65726f0000000000000000600082015250565b6000620004c160188362000478565b9150620004ce8262000489565b602082019050919050565b60006020820190508181036000830152620004f481620004b2565b9050919050565b6200050681620003d7565b82525050565b6000819050919050565b62000521816200050c565b82525050565b60006040820190506200053e6000830185620004fb565b6200054d602083018462000516565b9392505050565b60008115159050919050565b6200056b8162000554565b81146200057757600080fd5b50565b6000815190506200058b8162000560565b92915050565b600060208284031215620005aa57620005a9620003b2565b5b6000620005ba848285016200057a565b91505092915050565b7f43616e6e6f74207472616e7366657220746f2073656c66000000000000000000600082015250565b6000620005fb60178362000478565b91506200060882620005c3565b602082019050919050565b600060208201905081810360008301526200062e81620005ec565b9050919050565b60805160a05160c0516113986200067360003960006104d9015260006106b5015260008181610709015281816107d4015261087901526113986000f3fe6080604052600436106100595760003560e01c80633aeac4e11461006557806351cff8d91461008e57806379ba5097146100b75780638da5cb5b146100ce578063f1dc9b72146100f9578063f2fde38b1461012257610060565b3661006057005b600080fd5b34801561007157600080fd5b5061008c60048036038101906100879190610bbc565b61014b565b005b34801561009a57600080fd5b506100b560048036038101906100b09190610bfc565b610255565b005b3480156100c357600080fd5b506100cc610319565b005b3480156100da57600080fd5b506100e36104ae565b6040516100f09190610c38565b60405180910390f35b34801561010557600080fd5b50610120600480360381019061011b9190610cee565b6104d7565b005b34801561012e57600080fd5b5061014960048036038101906101449190610bfc565b610959565b005b61015361096d565b60008173ffffffffffffffffffffffffffffffffffffffff166370a08231306040518263ffffffff1660e01b815260040161018e9190610c38565b602060405180830381865afa1580156101ab573d6000803e3d6000fd5b505050506040513d601f19601f820116820180604052508101906101cf9190610d6a565b90508173ffffffffffffffffffffffffffffffffffffffff1663a9059cbb84836040518363ffffffff1660e01b815260040161020c929190610da6565b6020604051808303816000875af115801561022b573d6000803e3d6000fd5b505050506040513d601f19601f8201168201806040525081019061024f9190610e07565b50505050565b61025d61096d565b600047905060008273ffffffffffffffffffffffffffffffffffffffff168260405161028890610e65565b60006040518083038185875af1925050503d80600081146102c5576040519150601f19603f3d011682016040523d82523d6000602084013e6102ca565b606091505b5050905080610314573383836040517f9d11f56300000000000000000000000000000000000000000000000000000000815260040161030b93929190610e7a565b60405180910390fd5b505050565b600160009054906101000a900473ffffffffffffffffffffffffffffffffffffffff1673ffffffffffffffffffffffffffffffffffffffff163373ffffffffffffffffffffffffffffffffffffffff16146103a9576040517f08c379a00000000000000000000000000000000000000000000000000000000081526004016103a090610f0e565b60405180910390fd5b60008060009054906101000a900473ffffffffffffffffffffffffffffffffffffffff169050336000806101000a81548173ffffffffffffffffffffffffffffffffffffffff021916908373ffffffffffffffffffffffffffffffffffffffff1602179055506000600160006101000a81548173ffffffffffffffffffffffffffffffffffffffff021916908373ffffffffffffffffffffffffffffffffffffffff1602179055503373ffffffffffffffffffffffffffffffffffffffff168173ffffffffffffffffffffffffffffffffffffffff167f8be0079c531659141344cd1fd0a4f28419497f9722a3daafe3b4186f6b6457e060405160405180910390a350565b60008060009054906101000a900473ffffffffffffffffffffffffffffffffffffffff16905090565b7f000000000000000000000000000000000000000000000000000000000000000073ffffffffffffffffffffffffffffffffffffffff166342966c68826040518263ffffffff1660e01b81526004016105309190610f2e565b600060405180830381600087803b15801561054a57600080fd5b505af115801561055e573d6000803e3d6000fd5b5050505060006040518060a00160405280856040516020016105809190610c38565b6040516020818303038152906040528152602001336040516024016105a59190610c38565b6040516020818303038152906040527f6a627842000000000000000000000000000000000000000000000000000000007bffffffffffffffffffffffffffffffffffffffffffffffffffffffff19166020820180517bffffffffffffffffffffffffffffffffffffffffffffffffffffffff83818316178352505050508152602001600067ffffffffffffffff81111561064257610641610f49565b5b60405190808252806020026020018201604052801561067b57816020015b610668610b29565b8152602001906001900390816106605790505b50815260200160018081111561069457610693610f78565b5b8560018111156106a7576106a6610f78565b5b146106b35760006106d5565b7f00000000000000000000000000000000000000000000000000000000000000005b73ffffffffffffffffffffffffffffffffffffffff16815260200160405180602001604052806000815250815250905060007f000000000000000000000000000000000000000000000000000000000000000073ffffffffffffffffffffffffffffffffffffffff166320487ded87846040518363ffffffff1660e01b81526004016107629291906111cd565b602060405180830381865afa15801561077f573d6000803e3d6000fd5b505050506040513d601f19601f820116820180604052508101906107a39190610d6a565b905060006001808111156107ba576107b9610f78565b5b8560018111156107cd576107cc610f78565b5b03610877577f000000000000000000000000000000000000000000000000000000000000000073ffffffffffffffffffffffffffffffffffffffff166396f4e9f988856040518363ffffffff1660e01b815260040161082d9291906111cd565b6020604051808303816000875af115801561084c573d6000803e3d6000fd5b505050506040513d601f19601f820116820180604052508101906108709190611233565b9050610919565b7f000000000000000000000000000000000000000000000000000000000000000073ffffffffffffffffffffffffffffffffffffffff166396f4e9f98389866040518463ffffffff1660e01b81526004016108d39291906111cd565b60206040518083038185885af11580156108f1573d6000803e3d6000fd5b50505050506040513d601f19601f820116820180604052508101906109169190611233565b90505b7f54791b38f3859327992a1ca0590ad3c0f08feba98d1a4f56ab0dca74d203392a81604051610948919061126f565b60405180910390a150505050505050565b61096161096d565b61096a816109fd565b50565b60008054906101000a900473ffffffffffffffffffffffffffffffffffffffff1673ffffffffffffffffffffffffffffffffffffffff163373ffffffffffffffffffffffffffffffffffffffff16146109fb576040517f08c379a00000000000000000000000000000000000000000000000000000000081526004016109f2906112d6565b60405180910390fd5b565b3373ffffffffffffffffffffffffffffffffffffffff168173ffffffffffffffffffffffffffffffffffffffff1603610a6b576040517f08c379a0000000000000000000000000000000000000000000000000000000008152600401610a6290611342565b60405180910390fd5b80600160006101000a81548173ffffffffffffffffffffffffffffffffffffffff021916908373ffffffffffffffffffffffffffffffffffffffff1602179055508073ffffffffffffffffffffffffffffffffffffffff1660008054906101000a900473ffffffffffffffffffffffffffffffffffffffff1673ffffffffffffffffffffffffffffffffffffffff167fed8889f560326eb138920d842192f0eb3dd22b4f139c87a2c57538e05bae127860405160405180910390a350565b6040518060400160405280600073ffffffffffffffffffffffffffffffffffffffff168152602001600081525090565b600080fd5b600073ffffffffffffffffffffffffffffffffffffffff82169050919050565b6000610b8982610b5e565b9050919050565b610b9981610b7e565b8114610ba457600080fd5b50565b600081359050610bb681610b90565b92915050565b60008060408385031215610bd357610bd2610b59565b5b6000610be185828601610ba7565b9250506020610bf285828601610ba7565b9150509250929050565b600060208284031215610c1257610c11610b59565b5b6000610c2084828501610ba7565b91505092915050565b610c3281610b7e565b82525050565b6000602082019050610c4d6000830184610c29565b92915050565b600067ffffffffffffffff82169050919050565b610c7081610c53565b8114610c7b57600080fd5b50565b600081359050610c8d81610c67565b92915050565b60028110610ca057600080fd5b50565b600081359050610cb281610c93565b92915050565b6000819050919050565b610ccb81610cb8565b8114610cd657600080fd5b50565b600081359050610ce881610cc2565b92915050565b60008060008060808587031215610d0857610d07610b59565b5b6000610d1687828801610c7e565b9450506020610d2787828801610ba7565b9350506040610d3887828801610ca3565b9250506060610d4987828801610cd9565b91505092959194509250565b600081519050610d6481610cc2565b92915050565b600060208284031215610d8057610d7f610b59565b5b6000610d8e84828501610d55565b91505092915050565b610da081610cb8565b82525050565b6000604082019050610dbb6000830185610c29565b610dc86020830184610d97565b9392505050565b60008115159050919050565b610de481610dcf565b8114610def57600080fd5b50565b600081519050610e0181610ddb565b92915050565b600060208284031215610e1d57610e1c610b59565b5b6000610e2b84828501610df2565b91505092915050565b600081905092915050565b50565b6000610e4f600083610e34565b9150610e5a82610e3f565b600082019050919050565b6000610e7082610e42565b9150819050919050565b6000606082019050610e8f6000830186610c29565b610e9c6020830185610c29565b610ea96040830184610d97565b949350505050565b600082825260208201905092915050565b7f4d7573742062652070726f706f736564206f776e657200000000000000000000600082015250565b6000610ef8601683610eb1565b9150610f0382610ec2565b602082019050919050565b60006020820190508181036000830152610f2781610eeb565b9050919050565b6000602082019050610f436000830184610d97565b92915050565b7f4e487b7100000000000000000000000000000000000000000000000000000000600052604160045260246000fd5b7f4e487b7100000000000000000000000000000000000000000000000000000000600052602160045260246000fd5b610fb081610c53565b82525050565b600081519050919050565b600082825260208201905092915050565b60005b83811015610ff0578082015181840152602081019050610fd5565b60008484015250505050565b6000601f19601f8301169050919050565b600061101882610fb6565b6110228185610fc1565b9350611032818560208601610fd2565b61103b81610ffc565b840191505092915050565b600081519050919050565b600082825260208201905092915050565b6000819050602082019050919050565b61107b81610b7e565b82525050565b61108a81610cb8565b82525050565b6040820160008201516110a66000850182611072565b5060208201516110b96020850182611081565b50505050565b60006110cb8383611090565b60408301905092915050565b6000602082019050919050565b60006110ef82611046565b6110f98185611051565b935061110483611062565b8060005b8381101561113557815161111c88826110bf565b9750611127836110d7565b925050600181019050611108565b5085935050505092915050565b600060a083016000830151848203600086015261115f828261100d565b91505060208301518482036020860152611179828261100d565b9150506040830151848203604086015261119382826110e4565b91505060608301516111a86060860182611072565b50608083015184820360808601526111c0828261100d565b9150508091505092915050565b60006040820190506111e26000830185610fa7565b81810360208301526111f48184611142565b90509392505050565b6000819050919050565b611210816111fd565b811461121b57600080fd5b50565b60008151905061122d81611207565b92915050565b60006020828403121561124957611248610b59565b5b60006112578482850161121e565b91505092915050565b611269816111fd565b82525050565b60006020820190506112846000830184611260565b92915050565b7f4f6e6c792063616c6c61626c65206279206f776e657200000000000000000000600082015250565b60006112c0601683610eb1565b91506112cb8261128a565b602082019050919050565b600060208201905081810360008301526112ef816112b3565b9050919050565b7f43616e6e6f74207472616e7366657220746f2073656c66000000000000000000600082015250565b600061132c601783610eb1565b9150611337826112f6565b602082019050919050565b6000602082019050818103600083015261135b8161131f565b905091905056fea264697066735822122009c71ae0944759057dc84e30584339a6da78842d91e1c5f447670776a6d7241364736f6c63430008130033",
  "linkReferences": {},
  "deployedLinkReferences": {}
}